:1000000002308A00E92A000031308400831300089E
:10001000031918280130F800F701F70B0D28F80B29
:100020000C284A30F700F70B13281628800B0A28F3
:10003000080035181D2806121E280616B518222895
:10004000861223288616351927280613282806170E
:10005000B5192C2886132D28861700008615302800
:1000600086110800B6010030061A0130B6040030CF
:10007000861A0130F7000310F70D7708B604003038
:10008000061B0130F700F70DF70DFC30F705770878
:10009000B6040030861B0130F700F70DF70DF70DA1
:1000A000F830F7057708B6043608F800080083161C
:1000B0008611861006118312861083160616861680
:1000C00006178617831206150000861500003220D9
:1000D0007808B500861100008615000032207808E7
:1000E000B400861183160612861206138613831235
:1000F000350EF700F030F70577083404F80078087B
:10010000B400B41B5D28B208031D88288610892816
:1001100086140000061100008611330EB4000F3063
:10012000B4053408B500192033080F39B400B50000
:10013000192008002F0B9D28A0284030B000A128CE
:10014000B00101302E02B00730088038B100B20192
:100150003108B300572008002D08073A0319BA28C0
:100160000B3A0319BF28063A0319C728023A0319A4
:10017000CD28D2280130AE00AF009A20D728B20196
:100180000130B30057200230B1000420D7280130DD
:10019000AE000230AF009A20D728B2011030B30071
:1001A0005720D7280130B2002D08B300572008008F
:1001B0008501860187013F30831685000030860067
:1001C0008700831285018601870183161F1383121E
:1001D0001F179F1783169F1383121F1483161F1454
:1001E0009F101F159F11F80083121F08C73978044C
:1001F0009F006430B10004202830AC000C30AD000A
:100200000130AE000630AF0086118610061183164D
:1002100006128612061386138611861006110F30F9
:100220008312B10004200130AB002B08033C031CF7
:1002300021290330B50019200530B1000420AB0A94
:1002400015290230B50019200530B1000420AB019A
:100250002B08033C031C38292C302B078400831304
:100260000008B000B2013008B3005720AB0A2829BB
:100270000C30AD00AC208A110A12022B0830F800B5
:1002800000008711A0112008831687000000831248
:10029000B10D0712031C522920162008831687006F
:1002A000562983122012200883168700000083122B
:1002B000A0152008831687008312871D5D29F80B7F
:1002C000402900008711A011200883168700000034
:1002D0008312201620088316870000000000831276
:1002E000A0152008831687008312871D7529F80141
:1002F0000000071A78148711A011200883168700C0
:100300008312071220122008831687008312080028
:10031000013003178D0083168C130C1483120C0804
:100320000313AC0003178D0183168C130C14831276
:100330000C080313AD002C08A3002D08A20023080D
:10034000AC002208AD002C08AE002D08AF002B0831
:10035000B0008316071600008715000083120712ED
:100360008316071200008312871183168711A030AD
:100370008312B1003E212E08B1003E212F08B100AA
:100380003E213008B1003E21831607120000871578
:100390008312871DC9290000CD2900008316071686
:1003A000000005308312B1000420A20A0319A30A39
:1003B0002208AC000B08F7008B1303178D01031301
:1003C000220803178C0083168C130C1555308D00F2
:1003D000AA308D008C148C18EB290C11770883122D
:1003E00003138B040A30B10004202308AC000B086F
:1003F000F7008B13013003178D0003132308031735
:100400008C0083168C130C1555308D00AA308D008E
:100410008C148C18092A0C117708831203138B048F
:100420000A30B10004208A110A12642B2E08F80148
:100430002D0203181E2A2D08F7002A2AF70108307A
:10044000AF00AD0DF70D2E0877020318F700F80D79
:10045000AF0B212A080078082B08AD006430AE00ED
:1004600016227708AB0078083030031D3E2AAC1CFA
:10047000452AAC19452A2C1A2030412AAC112C12DD
:100480002C14F8077808AD00AC202B08AD000A301A
:10049000AE0016227708AB0078083030031D562ACC
:1004A000AC195A2A2C1C5A2A2C1A2030F807780822
:1004B000AD00AC203030AB072B08AD00AC200800FD
:1004C0008316071600008715000083120712831693
:1004D000071200008312871183168711A030831240
:1004E000B1003E212D08B1003E212E08B1003E2171
:1004F000831607160000871500008312871D7E2AC9
:1005000007128316071200008312871183168711C2
:10051000A1308312B1003E21F7010830B100770805
:10052000B200201620088316870000008312A01551
:100530002008831687008312871D9C2A071A03143C
:10054000071E0310F80D0000A01120088316870075
:1005500083128711B10B912A201620088316870079
:1005600000008312071232080319BB2A2012200848
:100570008316870083120000A015200883168700C9
:100580008312871DC12A00008711A011200883163D
:1005900087000000831207122012200883168700AC
:1005A00078088312AF0083160712000087158312A4
:1005B000871DD82A0000DC2A0000831607160000D9
:1005C00005308312B10004202F08F8008A110A12A6
:1005D000AB2B03081F398300FF30A000A101A3014A
:1005E000A201A501A401A701A601A801A901AA01D0
:1005F00083161F149F141F159F1107309C0083132F
:100600008312D828053003178D0083168C130C1421
:1006100083120C080313A800280F582B0B08F700AF
:100620008B13053003178D008C0183168C130C156A
:1006300055308D00AA308D008C148C181D2B0C1198
:100640007708831203138B046430B10004200B0875
:10065000F7008B1303178D018C0183168C130C1577
:1006600055308D00AA308D008C148C18352B0C1150
:100670007708831203138B046430B10004200B0845
:10068000F7008B13013003178D008C0183168C1338
:100690000C1555308D00AA308D008C148C184E2B03
:1006A0000C117708831203138B046430B10004200B
:1006B000051E7B2B051A5A2B1F151F195D2B1E08B3
:1006C000A1002108AB0088290130AE00AF009A20BC
:1006D0002108AB001B30AC002B222030AD00AC2039
:1006E000DF30AD00AC204330AD00AC206430B10051
:1006F0000420582BC92B851EC92B851A7D2B013050
:1007000003178D0083168C130C1483120C0803132B
:10071000A90003178D0183168C130C1483120C0887
:100720000313AA002908A7002A08A600A501A4010E
:1007300025082702031CC92B031DA22B260824020F
:100740000318C92B2508AB002408AC002508AD0010
:100750002408AE00602A7808A1000C30AD00AC205F
:100760002108AB001B30AC002B222030AD00AC20A8
:10077000DF30AD00AC204330AD00AC200C30AB001E
:10078000FA30B1000420AB0BC02BA40A0319A50A50
:06079000982B582B6300BA
:02400E00313E41
:00000001FF
;PIC16F876A
;CRC=0BCB  CREATED="06-Jun-25 18:52"
