:1000000000308A001828000013308400000803190B
:10001000172801308D008C018C0B0C288D0B0B28C0
:100020004A308C008C0B12281528800B09280800F8
:1000300003081F3983008316850183128501831607
:100040008601831286011F308316850000308600EA
:100050008501831285018316860183128601FF3094
:10006000831685008312050891001108073C031DC3
:1000700051288316860107308312860004309200CF
:10008000FA3093000420920B4028831686018312D5
:10009000860104309200FA3093000420920B4B2822
:1000A000842811080F3C031D6D28831686010F302C
:1000B0008312860004309200FA3093000420920BE1
:1000C0005C28831686018312860104309200FA3080
:1000D00093000420920B6728842883168601FF3042
:1000E0008312860004309200FA3093000420920BB1
:1000F0007428831686018312860104309200FA3038
:0C01000093000420920B7F282F2863003E
:02400E000100AF
:00000001FF
;PIC16F84A
;CRC=544E  CREATED="09-May-25 10:43"
