:1000000005308A00002D000041224310CC24CE226E
:10001000A0180000373084008313000803191E283D
:100020000130F800F701F70B1328F80B12284A30BB
:10003000F700F70B19281C28800B102808003E1821
:100040002328061224280616831606128312BE18C9
:100050002B2886122C2886168316861283123E19A8
:100060003328061334280617831606138312BE1985
:100070003B2886133C2886178316861300008312BC
:1000800006158316061144288312061183160611DD
:1000900083120800BF018316061600308312061A69
:1000A0000130BF048316861600308312861A013091
:1000B000F7000310F70D7708BF048316061700300A
:1000C0008312061B0130F700F70DF70DFC30F70522
:1000D0007708BF048316861700308312861B013011
:1000E000F700F70DF70DF70DF830F7057708BF04A7
:1000F0003F08F800080083160611061086108312C8
:100100000610831606100616861606178617831223
:1001100086148316861000008312061583160611B6
:10012000000083124A207808BE00061183160611CB
:1001300000008312061583160611000083124A2060
:100140007808BD00061183160611061286120613E2
:10015000861383123E0EF700F030F70577083D0452
:10016000F8007808BD00BD1FB72883168328BB0898
:10017000031DBC280610BD280614831606100000B7
:1001800083128610831686100000831206118316D0
:10019000061183123C0EBD000F30BD053D08BE00A8
:1001A0001F203C080F39BD00BE001F200800380B7F
:1001B000DA28DD284030B900DE28B90101303702E5
:1001C000B90739088038BA00BB013A08BC007B2067
:1001D00008003608073A0319F7280B3A0319FC28D8
:1001E000063A03190429023A03190A290F29013092
:1001F000B700B800D7201429BB010130BC007B2018
:100200000230B7000A2014290130B7000230B800CC
:10021000D7201429BB011030BC007B2014290130E9
:10022000BB003608BC007B200800831685018312C2
:1002300085018316860183128601013083168500AD
:100240000030860087008312A4002830A6000C30FE
:10025000A7000130A8000630A90006118316061178
:1002600083120610831606108312861083168610DA
:1002700006128612061386130611061086100F301A
:100280008312B7000A200130A5002508033C031C97
:1002900051290330BE001F200530B7000A20A50AEF
:1002A00045290230BE001F200530B7000A20A501F5
:1002B0002508033C031C6829263025078400831386
:1002C0000008AA00BB012A08BC007B20A50A582907
:1002D0000C30B600E92083161F1383121F179F17D7
:1002E00083169F1383121F1483161F109F141F154C
:1002F0009F150030F80083121F08C73978049F004B
:100300008A110A12132D0B08A5008B1383160317ED
:100310008C170C140000000083120313A51B8B170D
:1003200003170C087F390319D7290313A5000317F6
:100330000D080313A60003170F080313A7002508D1
:10034000B600E920260803178D00031327080317BA
:100350008F0003130B08A8008B13831603178C1749
:100360000C140000000083120313A81B8B17031743
:100370000C0D0E0D7F390319D7290313A5000317A0
:100380000D080313A60003170F080313A700250881
:10039000B600E920260803178D000313270803176A
:1003A0008F008D0A03198F0A031383290317031380
:1003B0008A110A121E2D8E30F7002608F800250833
:1003C000F900FA01F808031DEF297908F800F9018E
:1003D0000830F702F808031DEF29F701F729031089
:1003E000F81BF629F90DF80DF703EF29F8138A1118
:1003F0000A12342D360803196A2ABE003A08031976
:100400006A2ABE0703180B2A7F30BE02031C6A2A21
:1004100003196A2A0F2A8130BE0703186A2A3E0888
:10042000F700F801F901FA013708C200C2173808CD
:10043000C1003908C0001830BE00BF01401C382A76
:100440003D08FA07031C2A2AF90A031D2A2AF80A7A
:100450000319BF173C08F907031C312AF80A0319CE
:10046000BF173B08B800B8173808F8070318BF17BC
:10047000BF0DF80CF90CFA0CC20CC10CC00C031027
:10048000BE0B1D2A0130F70703186A2AF81B4F2AF2
:10049000C20DFA0DF90DF80DF70303196A2AC21FF0
:1004A000602AFA0A031D602AF90A031D602AF80A65
:1004B000031D602AF80CF90CFA0CF70A03196A2AD2
:1004C0003708BF003B08BF06BF1F682AF8176E2A0F
:1004D000F8136E2AF701F801F901FA0108008318F0
:1004E000742A3E3084008313F701F801F901FA0100
:1004F000BE01BF01C001C1013D083C043B043A04F8
:100500000319B22A2030C2000310B60DB70DB80D82
:10051000B90DBE0DBF0DC00DC10D3D084102031D3B
:100520009B2A3C084002031D9B2A3B083F02031DF7
:100530009B2A3A083E02031CAC2A3A08BE023B083A
:10054000031C3B0FBF023C08031C3C0FC0023D08CC
:10055000031C3D0FC1020314F70DF80DF90DFA0D40
:10056000C20B842A3E088000840A3F088000840A67
:1005700040088000840A4108800008000408AE009A
:100580002D08B0000319DD2A2C08B9002B08B8008B
:100590002A08B7002908B600BD01BC012030BB0005
:1005A0008230BA00FA217A08AC007908AB007808EA
:1005B000AA007708A900B00BC42A7E30F700F80122
:1005C000AA1BF817F901FA0183102C08B9002B08AF
:1005D000B8002A08B7002908B6007A08BD007908D3
:1005E000BC007808BB007708BA0080308318BB06CF
:1005F000C001C1013708BF003B08BF063608031918
:10060000E52BBE00F7003A080319EE2BBE020319D2
:100610008A2B031C482B3B08C400C4173C08C300AA
:100620003D08C200C1010310C40CC30CC20CC10CB4
:10063000BE0B122BBF1F1F2B4014022C40103E106C
:100640004016393084008313172C4012BF1B322B05
:100650003E1C3D2BC40CC30CC20CC10CF70A031981
:10066000FD2B3D2BC41B402B0310C10DC20DC30D30
:10067000C40DF7030319FD2B322B4017AA2B40138F
:100680003708BF00BF1F462BC417F62BC413F62B29
:100690003A08BE00F7003608BE023708C400C41787
:1006A0003808C3003908C200C1010310C40CC30CD0
:1006B000C20CC10CBE0B542BBF1F612BC014022CEB
:1006C000C0103E10C0163D3084008313172CC0129A
:1006D000BF1B742B3E1C7F2BC40CC30CC20CC10C63
:1006E000F70A0319FD2B7F2BC41B822B0310C10DAE
:1006F000C20DC30DC40DF7030319FD2B742BC017D6
:10070000AA2BC0133B08BF00BF1F882BC417F62BB2
:10071000C413F62B3B08C400C4173C08C3003D08B3
:10072000C200BF1F972BC4134015022C4011C101FA
:100730003E10393084008313172CBF1BC02B3708A1
:10074000BF003E1CAA2BC40CC30CC20CC10CF70A80
:100750000319FD2BC11FBB2BC20A031DBB2BC30AF0
:10076000031DBB2BC40A031DBB2BC40CC30CC20C42
:10077000F70A0319FD2B401B3F2BC01B812BDF2BDE
:100780008030C406C41FC82B022C3B08BF00D52BE9
:100790003708BF00C408031DD52BC308031DD52B84
:1007A000C208031DD52BF701F62BC41BDF2B03104A
:1007B000C10DC20DC30DC40DF70BD52BFD2BBF1FF3
:1007C000E32BC417F62BC413F62B3A08F7003B08AB
:1007D000C4003C08C3003D08C200F62B3608F700F1
:1007E0003708C4003808C3003908C2004408F800BC
:1007F0004308F9004208FA00352CF701F801F90125
:10080000FA01352CC101C209C309C409C109C10AD1
:10081000031D102CC20A031D102CC30A0319C40A9D
:1008200040181E2BC018602B4019962BC52B0008B2
:10083000C207031C212CC30A031D212CC40A03195F
:100840003E1484030008C307031C292CC40A03199F
:100850003E1484030008801F803AC40703183E1426
:10086000401A252BC01A672B9D2B7A08AC007908FB
:10087000AB007808AA007708A9002C08B9002B085B
:10088000B8002A08B7002908B6003608B63CB600FA
:10089000FA013708BA00B7170310B70CB80CB90C37
:1008A000FA0CF90CF80CF70CB60B4C2CBA1F632C95
:1008B000F709F809F909FA09F70A0319F80A0319F7
:1008C000F90A0319FA0A7A08AC007908AB0078082B
:1008D000AA007708A900AC1F7A2CAE03AE16A909AE
:1008E000AA09AB09AC09A90A0319AA0A0319AB0A98
:1008F0000319AC0A3B30B5009A30B400CA30B300DB
:10090000B2010A30B0002D080319AE0A8314293051
:10091000840083132C08B9002B08B8002A08B700FC
:100920002908B6003508BD003408BC003308BB00F8
:100930003208BA006F227808F708031DB22C2D0A7E
:1009400030020319B22C2E080319B42C0F393002CF
:100950000319AC2C0318E42CAE1BE42C2E1BB42C76
:100960002030E02C2030AE05AE1EC22CAE122D0879
:10097000031DAE037708AE002D30B600E9202E0827
:10098000F700AE012D083002031DD02C7708AE0011
:100990002E30B600E9202E08F7002030AE050030DA
:1009A0003030AE1EE02CAE122D08031DAE037708CA
:1009B000AE002D30B600E9202E08F700AE01303031
:1009C000F7077708B600E92083103508B900340826
:1009D000B8003308B7003208B600BD01BC01BB0146
:1009E0000A30BA006F227A08B5007908B400780896
:1009F000B3007708B200B00B862C8A110A12652D5D
:100A000003081F398300A301A201A101A001FF3047
:100A1000A40083161F149F141F159F1107309C00FC
:100A20008313831215290130B700B800D720043092
:100A300003178D0000308F00031383290430A500B5
:100A4000FA30B7000A20A50B202D0A30B600E920A5
:100A50000130B7000230B800D7201F151F192E2D06
:100A60001E08A601A500DB297A08A3007908A200C8
:100A70007808A1007708A0006430B7000A20230896
:100A8000B9002208B8002108B7002008B6002E30AF
:100A9000BD009030BC002030BB007930BA00FA2194
:100AA0007A08A8007908A7007808A6007708A500AA
:100AB000893084007A08AC007908AB007808AA0075
:100AC0007708A9000230AD00BE2A0430A500FA3034
:0C0AD000B7000A20A50B672D132D630052
:02400E00311F60
:00000001FF
;PIC16F876A
;CRC=2EA8  CREATED="15-May-25 17:53"
