:1000000000308A008D280000831A0A289000030E11
:1000100091000F2883129000030E910091140A089A
:1000200097008A018313900E040892000C08930035
:100030000D0894000E0895000F08960083120B1E01
:1000400023288B1836281208840013088C00140803
:100050008D0015088E0016088F0017088A00110EF3
:1000600083008312100E9118831609000B121814C6
:100070008B108A112328831685018312850183162C
:1000800086018312860100308316850003308600C6
:1000900085018312850183168601831286018B10E8
:1000A0008316011383120B168B1792281B308400C2
:1000B00000080319692801308D008C018C0B5E2823
:1000C0008D0B5D284A308C008C0B64286728800BD0
:1000D0005B2808001810990199011908063C031CB7
:1000E0008C28831686138312861702309A00FA3002
:1000F0009B0056209A0B772883168613831286134B
:1001000002309A00FA309B0056209A0B822818146D
:100110008B100B16990A6D28942803081F39830049
:1001200018103B2818186A28831605108312051426
:1001300004309900FA309B005620990B9A288316B8
:1001400005108312051004309900FA309B005620E8
:08015000990BA5289228630019
:02400E000100AF
:00000001FF
;PIC16F84A
;CRC=1934  CREATED="06-Jun-25 22:04"
