:1000000008308A0089280000FF00030E8301A10048
:100010000A08A0008A010408A2007708A300780853
:10002000A4007908A5007A08A600831383120B1E8A
:100030001B288B182C28220884002308F70024088A
:10004000F8002508F9002608FA0020088A00210E89
:100050008300FF0E7F0E09008A110A1244280A103D
:100060008A100A1182072034203400340A108A10C2
:100070000A11820750344D3400340A108A100A11D4
:10008000820741344D340034B90A3908083C031C56
:10009000B9018B108B108A110A121B28443084007E
:1000A00083130008031962280130F800F701F70BE9
:1000B0005728F80B56284A30F700F70B5D286028C0
:1000C000800B54280800481867280612682806166E
:1000D000C8186C2886126D288616481971280613D0
:1000E00072280617C8197628861377288617000005
:1000F00086157A2886110800C9010030061A0130D9
:10010000C9040030861A0130F7000310F70D770894
:10011000C9040030061B0130F700F70DF70DFC3065
:10012000F7057708C9040030861B0130F700F70D8A
:10013000F70DF70DF830F7057708C9044908F800FE
:100140000800831686118610061183128610831606
:1001500006168616061786178312061500008615E2
:1001600000007C207808C800861100008615000079
:100170007C207808C70086118316061286120613A3
:1001800086138312480EF700F030F705770847040E
:10019000F8007808C700C71BA728C508031DD22888
:1001A0008610D32886140000061100008611460E22
:1001B000C7000F30C7054708C800632046080F393D
:1001C000C700C80063200800420BE728EA28403037
:1001D000C300EB28C30101304102C3074308803844
:1001E000C400C5014408C600A12008004008073A21
:1001F000031904290B3A03190929063A031911298D
:10020000023A031917291C290130C100C200E42059
:100210002129C5010130C600A1200230C4004E20B2
:1002200021290130C1000230C200E4202129C5018A
:100230001030C600A12021290130C5004008C600A9
:10024000A12008008501860187013F3083168500C3
:100250000130860000308700831285018601870106
:100260002830BB000C30BC000130BD000630BE00A1
:10027000861186100611831606128612061386133F
:100280008611861006110F308312C4004E200130F3
:10029000BA003A08033C031C55290330C800632008
:1002A0000530C4004E20BA0A49290230C800632034
:1002B0000530C4004E20BA013A08033C031C6C29E7
:1002C0003B303A07840083130008BF00C5013F0894
:1002D000C600A120BA0A5C290C30C000F6208316A3
:1002E000011783128B100B16C0308B048A150A126B
:1002F000A1280830F80000008711A71127088316ED
:10030000870000008312C40D0712031C8D292716D5
:10031000270883168700912983122712270883163E
:10032000870000008312A715270883168700831211
:10033000871D9829F80B7B2900008711A711270832
:10034000831687000000831227162708831687006C
:10035000000000008312A715270883168700831268
:10036000871DB029F8010000071A78148711A7111A
:10037000270883168700831207122712270883167F
:10038000870083120800C3016430C4004E20831626
:100390000716000087150000831207128316071244
:1003A00000008312871183168711D0308312C40096
:1003B00079214208C40079218316071600008715A9
:1003C00000008312871DE22907128316071200001E
:1003D0008312871183168711D1308312C4007921CB
:1003E000F7010830C5007708C600271627088316CE
:1003F000870000008312A715270883168700831241
:10040000871D002A071A0314071E0310F80D0000A9
:10041000A71127088316870083128711C50BF529BA
:100420002716270883168700000083120712460844
:1004300003191F2A2712270883168700831200003A
:10044000A7152708831687008312871D252A000019
:100450008711A7112708831687000000831207124F
:10046000271227088316870078088312C300831693
:100470000712000087158312871D3C2A0000402ABE
:1004800000008316071600002030F700F70B462AFD
:10049000492A000083124308F8000800420EF700C2
:1004A0000F30F70577080F39C30042080F39C40031
:1004B0004308C5000A30C600F701F80145080310DB
:1004C0004618F707F70CF80CC618F707F70CF80CE6
:1004D0004619F707F70CF80CC619F707F70CF80CD4
:1004E000461AF707F70CF80CC61AF707F70CF80CC2
:1004F000461BF707F70CF80CC61BF707F70CF80CB0
:1005000044087807F8000800C201C3217808B20047
:10051000B2133208C2004E227808B2003208F80046
:1005200008000130C200C3217808B300B3133308B8
:10053000C2004E227808B3003308F8000800420BCE
:10054000B22AC301C4012B308400831343088407FB
:1005500044083620800000380319B12AC40AC30AAF
:10056000A32AC22AC301C4012B3084008313430889
:10057000840744083D20800000380319C22AC40AB9
:10058000C30AB42A0800C001C1010230C200C3215D
:100590007808A800280EF700F70CF70C0330F705D1
:1005A00077080139AA00280EF700F70C0730F70585
:1005B00077080139A90028081F39C00028083F39E9
:1005C000C1002A0BEB2A2908C2009F224008C20062
:1005D0004E227808A8004108C2004E227808A800E0
:1005E0002830F800F90108005330C9007530CA00FE
:1005F0006E30CB00CC014D30CD006F30CE006E3070
:10060000CF00D0015430D1007530D2006530D30016
:10061000D4015730D5006530D6006430D700D801FA
:100620005430D9006830DA007530DB00DC01463028
:10063000DD007230DE006930DF00E0015330E100A0
:100640006130E2007430E300E401BC014930BB00DA
:10065000BE014D30BD00C0015130BF00C201553058
:10066000C100C4015930C300C6015D30C500C801D6
:100670006130C70001303A02F7000310F70D770828
:100680003B3E840083130008F800840A00088403BA
:10069000F90008000330C200C3217808AF0007301A
:1006A000AF052F08C2004E227808AF002F08BA000D
:1006B000F4227908B1007808B0002F08F80030085B
:1006C000F9003108FA0008000530C200C32178089B
:1006D000B7001F30B7053708C2004E227808B700B0
:1006E0003708F80008000430C200C3217808B600BB
:1006F0003F30B6053608C2004E227808B6003608EC
:10070000F80008000630C200C3217808B800380895
:10071000C2004E227808B8003808F80008004108E6
:10072000F80140020318972B4008F700A32BF701AC
:100730000830C200C00DF70D410877020318F7001A
:10074000F80DC20B9A2B080020303B1E3030BC0045
:100750003A08F700BA1FB42BF709F70A7708BA006E
:100760002D30BC00BB173B143A08C0006430C100F8
:100770008F237708BA0030307807BD003A08C000F0
:100780000A30C1008F2330307707BF003030780740
:10079000BE003C08F70030303D020319D32BBB14D8
:1007A000BB1B3B15E72B3B19E72B3C08BD00BB18D7
:1007B000DE2B30303E020319E12B3B14BB1BBB1474
:1007C000E72B031D3B14031DE72B3D08BE003B191F
:1007D000EE2BBB18F12B3B18F42BF72B3C08C00079
:1007E000F6203D08C000F6203E08C000F6203F0875
:1007F000C000F620080080080319102CBB01040873
:10080000BA003B10831B3B140008C000F6203A08D6
:10081000840083133B188317840A0319850AFB2B72
:10082000080020303B1E3030BC003A08F700BA1FE9
:10083000212CF709F70A7708BA002D30BC00BB1746
:100840003B143A08C0006430C1008F237708BA0017
:1008500030307807BD003A08C0000A30C1008F234D
:1008600030307707BF0030307807BE003C08F70013
:1008700030303D020319402CBB14BB1B3B15542CDC
:100880003C08BD002030BC0030303E0203194C2C27
:100890003B14BB1BBB14542C031D3B14031D542CD5
:1008A0003D08BE002030BD003B195B2CBB185E2C00
:1008B0003B18612C642C3C08C000F6203D08C000A9
:1008C000F6203E08C000F6203F08C000F6200800D1
:1008D00084227808B20091227808B300C3227908F4
:1008E000FA007808BA007A08BB00BD012830BC00C5
:1008F0000730F8003A08840083133B188317000878
:10090000F7003C08840083133D18831777088000A4
:10091000BC0A0319BD0ABA0A0319BB0AF80B7A2CE0
:100920004A237A08B1007908B0007808AF00642340
:100930007808B70073237808B60082237808B800D7
:100940000130C100C200E4202808BA000130BB0019
:10095000A4233A30C000F6203308BA000130BB00AF
:10096000A4233A30C000F6203208BA000130BB00A0
:10097000A4232030C000F6202B3084008313FB23F7
:100980000130C1000230C200E4203608BA00013054
:10099000BB00A4233A30C000F6203708BA0001306B
:1009A000BB00A4233A30C000F6203808BA0011304A
:1009B000BB0011242030C000F620300884008313CF
:1009C00031188317FB23080084227808B200390B02
:1009D000232D0730C1000130C200E4203208BA00E4
:1009E0000130BB00A4230230BA009630C4004E2070
:1009F000BA0BF52C0730C1000130C200E4202030D2
:100A0000C000F6202030C000F6200230BA00963038
:100A1000C4004E20BA0B072D051E172D051A0E2DEA
:100A2000B20A32083B3C031CB201E72C222D851E82
:100A3000222D851A192DB208031D202D3C30B2003D
:100A4000B203E72CE72C8A150A1241299122780873
:100A5000B3003908023C031D672D0430C10001308A
:100A6000C200E4203308BA000130BB00A4230230E6
:100A7000BA009630C4004E20BA0B392D0430C100A4
:100A80000130C200E4202030C000F6202030C00039
:100A9000F6200230BA009630C4004E20BA0B4B2D1F
:100AA000051E5B2D051A522DB30A33083B3C031C6F
:100AB000B301292D662D851E662D851A5D2DB3087F
:100AC000031D642D3C30B300B303292D292D8A1555
:100AD0000A124129C3227908FA007808BA007A0874
:100AE000BB00BD012830BC000730F8003A08840084
:100AF00083133B1883170008F7003C088400831316
:100B00003D18831777088000BC0A0319BD0ABA0A8A
:100B10000319BB0AF80B762D3908033C031D372E49
:100B20000130C100C200E4202808BA000130BB0037
:100B3000A4232908C2009F22AA08031DAF2DBA01D1
:100B4000BB012B30840083133A0884073B082F2015
:100B5000800000380319AF2DBB0ABA0AA12D0A3054
:100B6000C1000130C200E4202B3084008313FB233A
:100B70000230BA009630C4004E20BA0BBA2D0130B4
:100B8000C100C200E4202030C000F6202030C000A8
:100B9000F6200230BA009630C4004E20BA0BCB2D9E
:100BA000051EFB2D051AD22DA80AAA08031DE52D46
:100BB0002808173C0318E32D0130A8002908C200BB
:100BC0009F220130AA068C2DFB2D2A0BFB2D290B11
:100BD000F22D28080C3C031DF12D0130AA06A801B6
:100BE000A9068C2DA90128080C3C031DFA2D013003
:100BF000A906A8008C2D851E362E851AFD2DA8036A
:100C0000AA08031D0E2EA808031D0C2EA8012908F2
:100C1000C2009F220130AA068C2D362E2A0B362EBA
:100C2000290B1C2EA808031D1B2E0130AA06173005
:100C3000A8000130A9068C2D3408B5002808B4009E
:100C40003508B400A90134080C3C031D2C2E0130DA
:100C5000A9060C30A800352E34080B3C031C352E99
:100C600001303407A8002808B4008C2D8C2D8A157B
:100C70000A1241294A237A08B1007908B00078089D
:100C8000AF003908043C031D922E0A30C100023027
:100C9000C200E42030088400831331188317FB233B
:100CA0000230BA009630C4004E20BA0B522E0A30E1
:100CB000C1000230C200E4202030C000F620203005
:100CC000C000F6202030C000F6200230BA00963076
:100CD000C4004E20BA0B672E051E802E051A6E2EFC
:100CE000AF0A2F08073C0318772E0130AF002F08FA
:100CF000BA00F4227908B1007808B000412E912E94
:100D0000851E912E851A822E2F0B882E0830AF005B
:100D1000AF032F08BA00F4227908B1007808B000B8
:100D2000412E412E8A150A12412973237808B600F4
:100D30003908053C031DD82E0130C1000230C20025
:100D4000E4203608BA000130BB00A4230230BA0008
:100D50009630C4004E20BA0BA82E0130C1000230DC
:100D6000C200E4202030C000F6202030C000F62071
:100D70000230BA009630C4004E20BA0BBA2E051EBF
:100D8000CC2E051AC12EB60A3608203C0318CA2EEE
:100D90000130B600982ED72E851ED72E851ACE2E5E
:100DA000B608031DD52E2030B600B603982E982E17
:100DB0008A150A12412964237808B7003908063CCD
:100DC000031D1E2F0430C1000230C200E42037088A
:100DD000BA000130BB00A4230230BA009630C40030
:100DE0004E20BA0BEE2E0430C1000230C200E420C7
:100DF0002030C000F6202030C000F6200230BA00BB
:100E00009630C4004E20BA0B002F051E122F051A73
:100E1000072FB70A37080C3C0318102F0130B70012
:100E2000DE2E1D2F851E1D2F851A142FB708031DBA
:100E30001B2F0C30B700B703DE2EDE2E8A150A12E8
:100E4000412982237808B8003908073C031D622F26
:100E50000730C1000230C200E4203808BA00013077
:100E6000BB00A4230230BA009630C4004E20BA0B57
:100E7000342F0730C1000230C200E4202030C0000F
:100E8000F6202030C000F6200230BA009630C400B0
:100E90004E20BA0B462F051E562F051A4D2FB80AA5
:100EA0003808633C031CB801242F612F851E612F75
:100EB000851A582FB808031D5F2F6430B800B80397
:100EC000242F242F8A150A124129831607160000A1
:100ED0008715000083120712831607120000831281
:100EE000871183168711D0308312C40079213B0803
:100EF000C40079213C08C400792183160712000040
:100F000087158312871D822F0000862F000083160D
:100F10000716000014308312C4004E2008003B085E
:100F2000C0000A30C1008F237808BC003B08C00015
:100F30000A30C1008F237708BD003C0EF700F03067
:0A0F4000F70577083D04F8000800EB
:10100000BB018030BC008A1165278A153308BB00FC
:101010008A118F278A157808B300B3130130BB00FB
:101020003308BC008A1165278A15BA012808BB005D
:101030008A118F278A157808A800280EF700F70C68
:10104000F70C0330F70577080139BA003A0B31285D
:10105000290EF700F70DE030F7057708A804A8136C
:1010600033283F30A8050230BB002808BC008A1195
:1010700065278A152F08BB008A118F278A157808E3
:10108000AF000730AF050330BB002F08BC008A114A
:1010900065278A153608BB008A118F278A157808BC
:1010A000B6003F30B6050430BB003608BC008A11DC
:1010B00065278A153708BB008A118F278A1578089B
:1010C000B7001F30B7050530BB003708BC008A11D8
:1010D00065278A153808BB008A118F278A1578087A
:1010E000B8000630BB003808BC008A1165278A1595
:1010F0003208BB008A118F278A157808B200B21314
:10110000BB013208BC008A1165278A158A150A12AC
:10111000402903081F398300FF30A700B201B30143
:10112000B401B501B601B701B801B90183161F14A6
:101130009F141F159F1107309C0083138A1183127F
:1011400022298A156430C4008A114E208A158A111A
:1011500068248A150130C100C2008A11E4208A1572
:101160002808BA000130BB008A11A4238A153A303E
:10117000C0008A11F6208A153308BA000130BB007E
:101180008A11A4238A153A30C0008A11F6208A15E4
:101190003208BA000130BB008A11A4238A1520301E
:1011A000C0008A11F6208A152B30840083138A111F
:1011B000FB238A150130C1000230C2008A11E420ED
:1011C0008A153608BA000130BB008A11A4238A159B
:1011D0003A30C0008A11F6208A153708BA0001306B
:1011E000BB008A11A4238A153A30C0008A11F62068
:1011F0008A153808BA001130BB008A1111248A15EB
:101200002030C0008A11F6208A153008840083132C
:10121000311883178A11FB238A153908F73E031802
:101220004129093E43298A1168248A150430BA00ED
:10123000C830C4008A114E208A15BA0B18298A11A9
:1012400068248A1541298A11E42C8A1541298A11BA
:10125000262D8A1541298A116A2D8A1541298A115C
:101260003A2E8A1541298A11952E8A1541298A110B
:10127000DB2E8A1541298A11212F8A154129002840
:10128000B901AA2863000A148A100A1182071329D7
:10129000232927292B292F29332937293B293F297E
:02400E00311E61
:00000001FF
;PIC16F876A
;CRC=0556  CREATED="16-Jun-25 17:03"
