:1000000000308A009B280000831A0A289000030E03
:1000100091000F2883129000030E910091140A089A
:1000200097008A018313900E040892000C08930035
:100030000D0894000E0895000F08960083128B1E81
:1000400023280B1959281208840013088C0014085F
:100050008D0015088E0016088F0017088A00110EF3
:1000600083008312100E9118831609000A108A105B
:100070000A1182073F3406345B344F3466346D34E2
:100080007D3407347F346F341D088D011C02031842
:100090004C281C088C0058288C0108309E009C0DB0
:1000A0008C0D1D080C0203188C008D0D9E0B4F2823
:1000B00008006430810018089C000A309D0044202C
:1000C0000C089A0018089C000A309D0044200D0876
:1000D0009B0099099908031D7928051485141A08AD
:1000E0009C001C0836208D008D000D088600051030
:1000F0008428051485141B089C001C0836208D00DC
:100100008D000D08860085100B118A1123281830E8
:1001100083168500003086008312850186018316D0
:100120000108C039053881006430831281000B1149
:100130008B168B17A12803081F398300980199019A
:1001400087288519AA28851DA328980A1808633CC2
:10015000031C9801051AB828051EAC289808031935
:10016000B5281808633C0318B7289801B8289803E5
:04017000A12863005F
:02400E000100AF
:00000001FF
;PIC16F84A
;CRC=307C  CREATED="25-May-25 12:39"
