:1000000000308A006528000083168501831285016F
:1000100083168601831286010030831685008600D0
:100020008501831285018316860183128601692862
:1000300012308400000803192B2801308D008C0138
:100040008C0B20288D0B1F284A308C008C0B262807
:100050002928800B1D280800831686012130831271
:10006000860010309100FA3092001820910B33284E
:100070008316860112308312860008309100FA3010
:1000800092001820910B3F28831686018312860167
:10009000831686010C308312860010309100FA30EE
:1000A00092001820910B4F2883168601123083127C
:1000B000860008309100FA3092001820910B5B28DE
:1000C00083168601831286016A2803081F3983007C
:0800D00004282C2869286300B4
:02400E000100AF
:00000001FF
;PIC16F84A
;CRC=CA97  CREATED="24-May-25 13:50"
