:1000000001308A0048290000D732EC31EF36650014
:100010005434E939A034731074346510F332E33783
:100020006E32203669376500D732EC31EF36650025
:10003000831685018312850183168601831286014A
:100040000030A000831687018312870102308316D7
:1000500085000030860087008312A000831685018A
:10006000831285018316860183128601A000831600
:10007000870183128701080024308400831300085D
:10008000031950280130F800F701F70B4528F80B49
:1000900044284A30F700F70B4B284E28800B4228A3
:1000A0008A110A1272290B08A3008B1383160317F7
:1000B0008C170C140000000083120313A31B8B1772
:1000C00003170C087F390319A9280313A30003178A
:1000D0000D080313A40003170F080313A50023083A
:1000E0000C1E70289900240803178D00031325089F
:1000F00003178F0003130B08A6008B138316031737
:100100008C170C140000000083120313A61B8B171E
:1001100003170C0D0E0D7F390319A9280313A30033
:1001200003170D080313A40003170F080313A500FA
:1001300023080C1E99289900240803178D00031327
:10014000250803178F008D0A03198F0A03135328FC
:10015000031703130800FE300C1EAC289900013071
:100160000C1EB0289900FE300C1EB42899000030F7
:100170000C1EB8289900043003178D0000308F0042
:1001800003135320FE300C1EC3289900C0300C1EF0
:10019000C7289900083003178D0000308F00031323
:1001A00053208A110A127629210884008313221809
:1001B000831726088000840A8001A10A0319A20A75
:1001C0000800831605108312051483168510831208
:1001D0008514A2010230A100143003178D000030F5
:1001E0008F0003130B08A3008B13831603178C17C0
:1001F0000C140000000083120313A31B8B170317BA
:100200000C087F39031944290313A30003170D08B1
:100210000313A40003170F080313A5002308A60067
:10022000D420240803178D000313250803178F001B
:1002300003130B08A6008B13831603178C170C14DB
:100240000000000083120313A61B8B1703170C0D6D
:100250000E0D7F39031944290313A30003170D085A
:100260000313A40003170F080313A5002308A60017
:10027000D420240803178D000313250803178F00CB
:100280008D0A03198F0AF12803138A110A1277299C
:1002900003081F398300193083169900A63098008F
:1002A0009030831298008316051083120514FF30D6
:1002B000A000A201A10183161F149F141F159F11F6
:1002C00007309C008313831218201930831699007D
:1002D000A63098009030831298000430A300FA30C2
:1002E000A4003C28A30B6F291820AB28E12877290C
:0202F0006300A9
:02400E00311E61
:00000001FF
;PIC16F876A
;CRC=9712  CREATED="22-May-25 17:19"
