:1000000000308A00772800000A108A100A1182073F
:10001000773465346C3463346F346D346534003454
:10002000831605108312051008308D001728000074
:100030008D1728288D13920C03180514031C051026
:100040000D1728280D138D0B1B28262800000514DA
:100050001C308400840B2A282D288D1B1A280D1B88
:1000600022280800831685018312850183168601E4
:1000700083128601023083168500003086008501D8
:10008000831285018316860183128601910111086E
:100090000420910A8C009200102007301102031DE9
:1000A0004728802883168514831285185528083020
:1000B0008C0091018C176A288C136A28031085180C
:1000C0000314910C0C176A280C138C0B5E28110872
:1000D0008D0076281C308C1B07308D008D0B6E2810
:1000E00000008C1B5C280C1B64285E2881280308F8
:1000F0001F398300831605108312051490013228DE
:1001000052280D08900010089200102080286300EB
:02400E000100AF
:00000001FF
;PIC16F84A
;CRC=3BFE  CREATED="22-May-25 16:56"
