:1000000001308A005E2900002E30840000080319A8
:10001000172801308D008C018C0B0C288D0B0B28C0
:100020004A308C008C0B12281528800B09280800F8
:1000300032181C2806121D28061683160612831273
:10004000B218242886122528861683168612831253
:1000500032192C2806132D2806178316061383122F
:10006000B2193428861335288617831686130000A4
:1000700083128615831686113D28831286118316F6
:10008000861183120800B30183160616003083120E
:10009000061A0130B3048316861600308312861ABE
:1000A00001308C0003108C0D0C08B3048316061766
:1000B00000308312061B01308C008C0D8C0DFC303F
:1000C0008C050C08B3048316861700308312861B38
:1000D00001308C008C0D8C0D8C0DF8308C050C08CB
:1000E000B30433088D0008008316861186100611AC
:1000F0008312861083168610061686160617861734
:1001000083120615831606110000831286158316C6
:1001100086110000831243200D08B2008611831659
:100120008611000083128615831686110000831243
:1001300043200D08B100861183168611061286121F
:10014000061386138312320E8C00F0308C050C08D7
:1001500031048D000D08B100B11FB02883167C2832
:10016000AF08031DB5288610B6288614831686109E
:1001700000008312061183160611000083128611F7
:10018000831686118312300EB1000F30B10531088D
:10019000B200182030080F39B100B2001820080052
:1001A0002830AA000C30AB000130AC000630AD00A6
:1001B0008611831686118312861083168610831289
:1001C000061183160611061286120613861386116F
:1001D000861006110F308312AE0004200130A900F2
:1001E0002908033C031CFC280330B200182005300A
:1001F000AE000420A90AF0280230B2001820053011
:10020000AE000420A9012908033C031C12292A304E
:10021000290784000008AE00AF012E08B00074204A
:10022000A90A032977292C0B162919294030AD007A
:100230001A29AD0101302B02AD072D088038AE0020
:10024000AF012E08B000742008002A08073A0319ED
:1002500033290B3A03193829063A03194029023A7F
:10026000031946294B290130AB00AC00132150295A
:10027000AF010130B00074200230AE0004205029DC
:100280000130AB000230AC0013215029AF01103017
:10029000B000742050290130AF002A08B00074204B
:1002A00008002908AA002A088400800803195A298E
:1002B000AA0A532929082A028D00CB2903081F39CD
:1002C00083009001831685018312850183168601C0
:1002D000831286011F3083168500803086008501D9
:1002E000831285018316860183128601D0280C3083
:1002F000AA00252157309100653092006C309300A0
:10030000633094006F3095006D3096006530970033
:1003100098014130990068309A006D309B0065303B
:100320009C0064309D0020309E004F309F006C3058
:10033000A0006130A1006C30A2006530A3006B30DA
:10034000A4006130A5006E30A600A7010130AB000B
:10035000AC001321A8012808073C031CBF29113059
:10036000280784000008A900AA0025210430A9005C
:10037000FA30AE000420A90BB829A80AAB290C302A
:10038000AA0025210130AB000230AC001321A801E6
:100390001930A90051290D0828020318DF29193046
:1003A000280784000008A900AA0025210430A9001C
:1003B000E130AE000420A90BD829A80AC8290C30C6
:1003C000AA0025210C30A900FA30AE000420A90BA8
:0603D000E429A6296300E8
:02400E000100AF
:00000001FF
;PIC16F84A
;CRC=7BE4  CREATED="08-May-25 17:45"
